{
  "_format": "hh-sol-artifact-1",
  "contractName": "CrowdFunding",
  "sourceName": "contracts/CrowdFunding.sol",
  "abi": [
    {
      "inputs": [],
      "stateMutability": "nonpayable",
      "type": "constructor"
    },
    {
      "anonymous": false,
      "inputs": [
        {
          "indexed": false,
          "internalType": "uint256",
          "name": "amount",
          "type": "uint256"
        },
        {
          "indexed": false,
          "internalType": "address",
          "name": "sender",
          "type": "address"
        }
      ],
      "name": "fundDonated",
      "type": "event"
    },
    {
      "anonymous": false,
      "inputs": [
        {
          "indexed": false,
          "internalType": "uint256",
          "name": "amount",
          "type": "uint256"
        },
        {
          "indexed": false,
          "internalType": "address",
          "name": "receiver",
          "type": "address"
        }
      ],
      "name": "fundWithdrawn",
      "type": "event"
    },
    {
      "inputs": [],
      "name": "donateFund",
      "outputs": [],
      "stateMutability": "payable",
      "type": "function"
    },
    {
      "inputs": [
        {
          "internalType": "address",
          "name": "",
          "type": "address"
        }
      ],
      "name": "donatedAmount",
      "outputs": [
        {
          "internalType": "uint256",
          "name": "",
          "type": "uint256"
        }
      ],
      "stateMutability": "view",
      "type": "function"
    },
    {
      "inputs": [],
      "name": "fundRaiser",
      "outputs": [
        {
          "internalType": "address",
          "name": "",
          "type": "address"
        }
      ],
      "stateMutability": "view",
      "type": "function"
    },
    {
      "inputs": [],
      "name": "getDonatedFund",
      "outputs": [
        {
          "internalType": "uint256",
          "name": "",
          "type": "uint256"
        }
      ],
      "stateMutability": "view",
      "type": "function"
    },
    {
      "inputs": [],
      "name": "totalAmountFunded",
      "outputs": [
        {
          "internalType": "uint256",
          "name": "",
          "type": "uint256"
        }
      ],
      "stateMutability": "view",
      "type": "function"
    },
    {
      "inputs": [],
      "name": "totalAmountWithdrawn",
      "outputs": [
        {
          "internalType": "uint256",
          "name": "",
          "type": "uint256"
        }
      ],
      "stateMutability": "view",
      "type": "function"
    },
    {
      "inputs": [
        {
          "internalType": "address payable",
          "name": "_to",
          "type": "address"
        },
        {
          "internalType": "uint256",
          "name": "_total",
          "type": "uint256"
        }
      ],
      "name": "withdrawFunds",
      "outputs": [],
      "stateMutability": "payable",
      "type": "function"
    },
    {
      "inputs": [
        {
          "internalType": "address",
          "name": "",
          "type": "address"
        }
      ],
      "name": "withdrawnAmount",
      "outputs": [
        {
          "internalType": "uint256",
          "name": "",
          "type": "uint256"
        }
      ],
      "stateMutability": "view",
      "type": "function"
    }
  ],
  "bytecode": "0x608060405234801561001057600080fd5b50336000806101000a81548173ffffffffffffffffffffffffffffffffffffffff021916908373ffffffffffffffffffffffffffffffffffffffff1602179055506109f2806100606000396000f3fe60806040526004361061007b5760003560e01c8063c10753291161004e578063c10753291461012f578063d40b931e1461014b578063f68741d614610176578063ff2073d7146101a15761007b565b8063022f63881461008057806310b20139146100bd5780633849cff3146100fa57806340c5e2ee14610104575b600080fd5b34801561008c57600080fd5b506100a760048036038101906100a2919061058a565b6101cc565b6040516100b491906105d0565b60405180910390f35b3480156100c957600080fd5b506100e460048036038101906100df919061058a565b6101e4565b6040516100f191906105d0565b60405180910390f35b6101026101fc565b005b34801561011057600080fd5b506101196102ea565b60405161012691906105d0565b60405180910390f35b61014960048036038101906101449190610655565b6102f0565b005b34801561015757600080fd5b506101606104b6565b60405161016d91906105d0565b60405180910390f35b34801561018257600080fd5b5061018b6104fd565b60405161019891906105d0565b60405180910390f35b3480156101ad57600080fd5b506101b6610503565b6040516101c391906106a4565b60405180910390f35b60036020528060005260406000206000915090505481565b60046020528060005260406000206000915090505481565b6000341415610240576040517f08c379a000000000000000000000000000000000000000000000000000000000815260040161023790610742565b60405180910390fd5b34600160008282546102529190610791565b9250508190555034600360003373ffffffffffffffffffffffffffffffffffffffff1673ffffffffffffffffffffffffffffffffffffffff16815260200190815260200160002060008282546102a89190610791565b925050819055507fcb96e696e43834b82546d4bba61ad15447a3e8293f41e8c352830303b7f4544234336040516102e09291906107e7565b60405180910390a1565b60015481565b60008054906101000a900473ffffffffffffffffffffffffffffffffffffffff1673ffffffffffffffffffffffffffffffffffffffff163373ffffffffffffffffffffffffffffffffffffffff161461037e576040517f08c379a000000000000000000000000000000000000000000000000000000000815260040161037590610882565b60405180910390fd5b6001548111156103c3576040517f08c379a00000000000000000000000000000000000000000000000000000000081526004016103ba90610914565b60405180910390fd5b8173ffffffffffffffffffffffffffffffffffffffff166108fc829081150290604051600060405180830381858888f19350505050158015610409573d6000803e3d6000fd5b50806002600082825461041c9190610791565b9250508190555080600460008473ffffffffffffffffffffffffffffffffffffffff1673ffffffffffffffffffffffffffffffffffffffff16815260200190815260200160002060008282546104729190610791565b925050819055507fd887926a0f5c440c6a5c63ee379d9a152e05d0081d646ede2f09c2dfc0b6434481836040516104aa929190610993565b60405180910390a15050565b6000600360003373ffffffffffffffffffffffffffffffffffffffff1673ffffffffffffffffffffffffffffffffffffffff16815260200190815260200160002054905090565b60025481565b60008054906101000a900473ffffffffffffffffffffffffffffffffffffffff1681565b600080fd5b600073ffffffffffffffffffffffffffffffffffffffff82169050919050565b60006105578261052c565b9050919050565b6105678161054c565b811461057257600080fd5b50565b6000813590506105848161055e565b92915050565b6000602082840312156105a05761059f610527565b5b60006105ae84828501610575565b91505092915050565b6000819050919050565b6105ca816105b7565b82525050565b60006020820190506105e560008301846105c1565b92915050565b60006105f68261052c565b9050919050565b610606816105eb565b811461061157600080fd5b50565b600081359050610623816105fd565b92915050565b610632816105b7565b811461063d57600080fd5b50565b60008135905061064f81610629565b92915050565b6000806040838503121561066c5761066b610527565b5b600061067a85828601610614565b925050602061068b85828601610640565b9150509250929050565b61069e8161054c565b82525050565b60006020820190506106b96000830184610695565b92915050565b600082825260208201905092915050565b7f596f75206e65656420746f206465706f73697420736f6d6520616d6f756e742060008201527f6f66206d6f6e6579210000000000000000000000000000000000000000000000602082015250565b600061072c6029836106bf565b9150610737826106d0565b604082019050919050565b6000602082019050818103600083015261075b8161071f565b9050919050565b7f4e487b7100000000000000000000000000000000000000000000000000000000600052601160045260246000fd5b600061079c826105b7565b91506107a7836105b7565b9250827fffffffffffffffffffffffffffffffffffffffffffffffffffffffffffffffff038211156107dc576107db610762565b5b828201905092915050565b60006040820190506107fc60008301856105c1565b6108096020830184610695565b9392505050565b7f596f75206d75737420626520746865206f776e657220746f207769746864726160008201527f77207468652066756e6473000000000000000000000000000000000000000000602082015250565b600061086c602b836106bf565b915061087782610810565b604082019050919050565b6000602082019050818103600083015261089b8161085f565b9050919050565b7f596f75206861766520696e7375666669656e742066756e647320746f2077697460008201527f6864726177000000000000000000000000000000000000000000000000000000602082015250565b60006108fe6025836106bf565b9150610909826108a2565b604082019050919050565b6000602082019050818103600083015261092d816108f1565b9050919050565b6000819050919050565b600061095961095461094f8461052c565b610934565b61052c565b9050919050565b600061096b8261093e565b9050919050565b600061097d82610960565b9050919050565b61098d81610972565b82525050565b60006040820190506109a860008301856105c1565b6109b56020830184610984565b939250505056fea2646970667358221220d4482a1f9ec52b929b0031ee89c697e2e895c6c7fda61d34a641ea1810c4248b64736f6c63430008080033",
  "linkReferences": {},
  "deployedLinkReferences": {}
}